{
  "contractName": "TestToken",
  "abi": [
    {
      "inputs": [],
      "stateMutability": "nonpayable",
      "type": "constructor"
    },
    {
      "inputs": [],
      "name": "ECDSAInvalidSignature",
      "type": "error"
    },
    {
      "inputs": [
        {
          "internalType": "uint256",
          "name": "length",
          "type": "uint256"
        }
      ],
      "name": "ECDSAInvalidSignatureLength",
      "type": "error"
    },
    {
      "inputs": [
        {
          "internalType": "bytes32",
          "name": "s",
          "type": "bytes32"
        }
      ],
      "name": "ECDSAInvalidSignatureS",
      "type": "error"
    },
    {
      "inputs": [
        {
          "internalType": "address",
          "name": "spender",
          "type": "address"
        },
        {
          "internalType": "uint256",
          "name": "allowance",
          "type": "uint256"
        },
        {
          "internalType": "uint256",
          "name": "needed",
          "type": "uint256"
        }
      ],
      "name": "ERC20InsufficientAllowance",
      "type": "error"
    },
    {
      "inputs": [
        {
          "internalType": "address",
          "name": "sender",
          "type": "address"
        },
        {
          "internalType": "uint256",
          "name": "balance",
          "type": "uint256"
        },
        {
          "internalType": "uint256",
          "name": "needed",
          "type": "uint256"
        }
      ],
      "name": "ERC20InsufficientBalance",
      "type": "error"
    },
    {
      "inputs": [
        {
          "internalType": "address",
          "name": "approver",
          "type": "address"
        }
      ],
      "name": "ERC20InvalidApprover",
      "type": "error"
    },
    {
      "inputs": [
        {
          "internalType": "address",
          "name": "receiver",
          "type": "address"
        }
      ],
      "name": "ERC20InvalidReceiver",
      "type": "error"
    },
    {
      "inputs": [
        {
          "internalType": "address",
          "name": "sender",
          "type": "address"
        }
      ],
      "name": "ERC20InvalidSender",
      "type": "error"
    },
    {
      "inputs": [
        {
          "internalType": "address",
          "name": "spender",
          "type": "address"
        }
      ],
      "name": "ERC20InvalidSpender",
      "type": "error"
    },
    {
      "inputs": [
        {
          "internalType": "uint256",
          "name": "deadline",
          "type": "uint256"
        }
      ],
      "name": "ERC2612ExpiredSignature",
      "type": "error"
    },
    {
      "inputs": [
        {
          "internalType": "address",
          "name": "signer",
          "type": "address"
        },
        {
          "internalType": "address",
          "name": "owner",
          "type": "address"
        }
      ],
      "name": "ERC2612InvalidSigner",
      "type": "error"
    },
    {
      "inputs": [
        {
          "internalType": "address",
          "name": "account",
          "type": "address"
        },
        {
          "internalType": "uint256",
          "name": "currentNonce",
          "type": "uint256"
        }
      ],
      "name": "InvalidAccountNonce",
      "type": "error"
    },
    {
      "inputs": [],
      "name": "InvalidShortString",
      "type": "error"
    },
    {
      "inputs": [
        {
          "internalType": "string",
          "name": "str",
          "type": "string"
        }
      ],
      "name": "StringTooLong",
      "type": "error"
    },
    {
      "anonymous": false,
      "inputs": [
        {
          "indexed": true,
          "internalType": "address",
          "name": "owner",
          "type": "address"
        },
        {
          "indexed": true,
          "internalType": "address",
          "name": "spender",
          "type": "address"
        },
        {
          "indexed": false,
          "internalType": "uint256",
          "name": "value",
          "type": "uint256"
        }
      ],
      "name": "Approval",
      "type": "event"
    },
    {
      "anonymous": false,
      "inputs": [],
      "name": "EIP712DomainChanged",
      "type": "event"
    },
    {
      "anonymous": false,
      "inputs": [
        {
          "indexed": true,
          "internalType": "address",
          "name": "from",
          "type": "address"
        },
        {
          "indexed": true,
          "internalType": "address",
          "name": "to",
          "type": "address"
        },
        {
          "indexed": false,
          "internalType": "uint256",
          "name": "value",
          "type": "uint256"
        }
      ],
      "name": "Transfer",
      "type": "event"
    },
    {
      "inputs": [],
      "name": "DOMAIN_SEPARATOR",
      "outputs": [
        {
          "internalType": "bytes32",
          "name": "",
          "type": "bytes32"
        }
      ],
      "stateMutability": "view",
      "type": "function",
      "constant": true
    },
    {
      "inputs": [
        {
          "internalType": "address",
          "name": "owner",
          "type": "address"
        },
        {
          "internalType": "address",
          "name": "spender",
          "type": "address"
        }
      ],
      "name": "allowance",
      "outputs": [
        {
          "internalType": "uint256",
          "name": "",
          "type": "uint256"
        }
      ],
      "stateMutability": "view",
      "type": "function",
      "constant": true
    },
    {
      "inputs": [
        {
          "internalType": "address",
          "name": "spender",
          "type": "address"
        },
        {
          "internalType": "uint256",
          "name": "value",
          "type": "uint256"
        }
      ],
      "name": "approve",
      "outputs": [
        {
          "internalType": "bool",
          "name": "",
          "type": "bool"
        }
      ],
      "stateMutability": "nonpayable",
      "type": "function"
    },
    {
      "inputs": [
        {
          "internalType": "address",
          "name": "account",
          "type": "address"
        }
      ],
      "name": "balanceOf",
      "outputs": [
        {
          "internalType": "uint256",
          "name": "",
          "type": "uint256"
        }
      ],
      "stateMutability": "view",
      "type": "function",
      "constant": true
    },
    {
      "inputs": [],
      "name": "decimals",
      "outputs": [
        {
          "internalType": "uint8",
          "name": "",
          "type": "uint8"
        }
      ],
      "stateMutability": "view",
      "type": "function",
      "constant": true
    },
    {
      "inputs": [],
      "name": "eip712Domain",
      "outputs": [
        {
          "internalType": "bytes1",
          "name": "fields",
          "type": "bytes1"
        },
        {
          "internalType": "string",
          "name": "name",
          "type": "string"
        },
        {
          "internalType": "string",
          "name": "version",
          "type": "string"
        },
        {
          "internalType": "uint256",
          "name": "chainId",
          "type": "uint256"
        },
        {
          "internalType": "address",
          "name": "verifyingContract",
          "type": "address"
        },
        {
          "internalType": "bytes32",
          "name": "salt",
          "type": "bytes32"
        },
        {
          "internalType": "uint256[]",
          "name": "extensions",
          "type": "uint256[]"
        }
      ],
      "stateMutability": "view",
      "type": "function",
      "constant": true
    },
    {
      "inputs": [],
      "name": "name",
      "outputs": [
        {
          "internalType": "string",
          "name": "",
          "type": "string"
        }
      ],
      "stateMutability": "view",
      "type": "function",
      "constant": true
    },
    {
      "inputs": [
        {
          "internalType": "address",
          "name": "owner",
          "type": "address"
        }
      ],
      "name": "nonces",
      "outputs": [
        {
          "internalType": "uint256",
          "name": "",
          "type": "uint256"
        }
      ],
      "stateMutability": "view",
      "type": "function",
      "constant": true
    },
    {
      "inputs": [
        {
          "internalType": "address",
          "name": "owner",
          "type": "address"
        },
        {
          "internalType": "address",
          "name": "spender",
          "type": "address"
        },
        {
          "internalType": "uint256",
          "name": "value",
          "type": "uint256"
        },
        {
          "internalType": "uint256",
          "name": "deadline",
          "type": "uint256"
        },
        {
          "internalType": "uint8",
          "name": "v",
          "type": "uint8"
        },
        {
          "internalType": "bytes32",
          "name": "r",
          "type": "bytes32"
        },
        {
          "internalType": "bytes32",
          "name": "s",
          "type": "bytes32"
        }
      ],
      "name": "permit",
      "outputs": [],
      "stateMutability": "nonpayable",
      "type": "function"
    },
    {
      "inputs": [],
      "name": "symbol",
      "outputs": [
        {
          "internalType": "string",
          "name": "",
          "type": "string"
        }
      ],
      "stateMutability": "view",
      "type": "function",
      "constant": true
    },
    {
      "inputs": [],
      "name": "totalSupply",
      "outputs": [
        {
          "internalType": "uint256",
          "name": "",
          "type": "uint256"
        }
      ],
      "stateMutability": "view",
      "type": "function",
      "constant": true
    },
    {
      "inputs": [
        {
          "internalType": "address",
          "name": "to",
          "type": "address"
        },
        {
          "internalType": "uint256",
          "name": "value",
          "type": "uint256"
        }
      ],
      "name": "transfer",
      "outputs": [
        {
          "internalType": "bool",
          "name": "",
          "type": "bool"
        }
      ],
      "stateMutability": "nonpayable",
      "type": "function"
    },
    {
      "inputs": [
        {
          "internalType": "address",
          "name": "from",
          "type": "address"
        },
        {
          "internalType": "address",
          "name": "to",
          "type": "address"
        },
        {
          "internalType": "uint256",
          "name": "value",
          "type": "uint256"
        }
      ],
      "name": "transferFrom",
      "outputs": [
        {
          "internalType": "bool",
          "name": "",
          "type": "bool"
        }
      ],
      "stateMutability": "nonpayable",
      "type": "function"
    },
    {
      "inputs": [
        {
          "internalType": "address",
          "name": "to",
          "type": "address"
        },
        {
          "internalType": "uint256",
          "name": "amount",
          "type": "uint256"
        }
      ],
      "name": "mint",
      "outputs": [],
      "stateMutability": "nonpayable",
      "type": "function"
    }
  ],
  "bytecode": "0x61016060405234801562000011575f80fd5b506040518060400160405280600a8152602001692a32b9ba102a37b5b2b760b11b81525080604051806040016040528060018152602001603160f81b8152506040518060400160405280600a8152602001692a32b9ba102a37b5b2b760b11b81525060405180604001604052806004815260200163151154d560e21b8152508160039081620000a1919062000421565b506004620000b0828262000421565b50620000c29150839050600562000198565b61012052620000d381600662000198565b61014052815160208084019190912060e052815190820120610100524660a0526200016060e05161010051604080517f8b73c3c69bb8fe3d512ecc4cf759cc79239f7b179b0ffacaa9a75d522b39400f60208201529081019290925260608201524660808201523060a08201525f9060c00160405160208183030381529060405280519060200120905090565b60805250503060c0525062000192336200017d6012600a620005f6565b6200018c90620f42406200060d565b620001d0565b620006ae565b5f602083511015620001b757620001af8362000210565b9050620001ca565b81620001c4848262000421565b5060ff90505b92915050565b6001600160a01b038216620001ff5760405163ec442f0560e01b81525f60048201526024015b60405180910390fd5b6200020c5f838362000252565b5050565b5f80829050601f815111156200023d578260405163305a27a960e01b8152600401620001f6919062000627565b80516200024a8262000674565b179392505050565b6001600160a01b03831662000280578060025f82825462000274919062000698565b90915550620002f29050565b6001600160a01b0383165f9081526020819052604090205481811015620002d45760405163391434e360e21b81526001600160a01b03851660048201526024810182905260448101839052606401620001f6565b6001600160a01b0384165f9081526020819052604090209082900390555b6001600160a01b03821662000310576002805482900390556200032e565b6001600160a01b0382165f9081526020819052604090208054820190555b816001600160a01b0316836001600160a01b03167fddf252ad1be2c89b69c2b068fc378daa952ba7f163c4a11628f55a4df523b3ef836040516200037491815260200190565b60405180910390a3505050565b634e487b7160e01b5f52604160045260245ffd5b600181811c90821680620003aa57607f821691505b602082108103620003c957634e487b7160e01b5f52602260045260245ffd5b50919050565b601f8211156200041c575f81815260208120601f850160051c81016020861015620003f75750805b601f850160051c820191505b81811015620004185782815560010162000403565b5050505b505050565b81516001600160401b038111156200043d576200043d62000381565b62000455816200044e845462000395565b84620003cf565b602080601f8311600181146200048b575f8415620004735750858301515b5f19600386901b1c1916600185901b17855562000418565b5f85815260208120601f198616915b82811015620004bb578886015182559484019460019091019084016200049a565b5085821015620004d957878501515f19600388901b60f8161c191681555b5050505050600190811b01905550565b634e487b7160e01b5f52601160045260245ffd5b600181815b808511156200053d57815f1904821115620005215762000521620004e9565b808516156200052f57918102915b93841c939080029062000502565b509250929050565b5f826200055557506001620001ca565b816200056357505f620001ca565b81600181146200057c57600281146200058757620005a7565b6001915050620001ca565b60ff8411156200059b576200059b620004e9565b50506001821b620001ca565b5060208310610133831016604e8410600b8410161715620005cc575081810a620001ca565b620005d88383620004fd565b805f1904821115620005ee57620005ee620004e9565b029392505050565b5f6200060660ff84168362000545565b9392505050565b8082028115828204841417620001ca57620001ca620004e9565b5f6020808352835180828501525f5b81811015620006545785810183015185820160400152820162000636565b505f604082860101526040601f19601f8301168501019250505092915050565b80516020808301519190811015620003c9575f1960209190910360031b1b16919050565b80820180821115620001ca57620001ca620004e9565b60805160a05160c05160e051610100516101205161014051610f18620007005f395f61075101525f61072401525f61069901525f61067101525f6105cc01525f6105f601525f6106200152610f185ff3fe608060405234801561000f575f80fd5b50600436106100e5575f3560e01c806370a082311161008857806395d89b411161006357806395d89b41146101d1578063a9059cbb146101d9578063d505accf146101ec578063dd62ed3e146101ff575f80fd5b806370a082311461017b5780637ecebe00146101a357806384b0196e146101b6575f80fd5b806323b872dd116100c357806323b872dd1461013c578063313ce5671461014f5780633644e5151461015e57806340c10f1914610166575f80fd5b806306fdde03146100e9578063095ea7b31461010757806318160ddd1461012a575b5f80fd5b6100f1610237565b6040516100fe9190610c97565b60405180910390f35b61011a610115366004610ccb565b6102c7565b60405190151581526020016100fe565b6002545b6040519081526020016100fe565b61011a61014a366004610cf3565b6102e0565b604051601281526020016100fe565b61012e610303565b610179610174366004610ccb565b610311565b005b61012e610189366004610d2c565b6001600160a01b03165f9081526020819052604090205490565b61012e6101b1366004610d2c565b61031f565b6101be61033c565b6040516100fe9796959493929190610d45565b6100f161037e565b61011a6101e7366004610ccb565b61038d565b6101796101fa366004610dd9565b61039a565b61012e61020d366004610e46565b6001600160a01b039182165f90815260016020908152604080832093909416825291909152205490565b60606003805461024690610e77565b80601f016020809104026020016040519081016040528092919081815260200182805461027290610e77565b80156102bd5780601f10610294576101008083540402835291602001916102bd565b820191905f5260205f20905b8154815290600101906020018083116102a057829003601f168201915b5050505050905090565b5f336102d48185856104d5565b60019150505b92915050565b5f336102ed8582856104e7565b6102f8858585610563565b506001949350505050565b5f61030c6105c0565b905090565b61031b82826106e9565b5050565b6001600160a01b0381165f908152600760205260408120546102da565b5f6060805f805f606061034d61071d565b61035561074a565b604080515f80825260208201909252600f60f81b9b939a50919850469750309650945092509050565b60606004805461024690610e77565b5f336102d4818585610563565b834211156103c35760405163313c898160e11b8152600481018590526024015b60405180910390fd5b5f7f6e71edae12b1b97f4d1f60370fef10105fa2faae0126114a169c64845d6126c988888861040e8c6001600160a01b03165f90815260076020526040902080546001810190915590565b6040805160208101969096526001600160a01b0394851690860152929091166060840152608083015260a082015260c0810186905260e0016040516020818303038152906040528051906020012090505f61046882610777565b90505f610477828787876107a3565b9050896001600160a01b0316816001600160a01b0316146104be576040516325c0072360e11b81526001600160a01b0380831660048301528b1660248201526044016103ba565b6104c98a8a8a6104d5565b50505050505050505050565b6104e283838360016107cf565b505050565b6001600160a01b038381165f908152600160209081526040808320938616835292905220545f1981101561055d578181101561054f57604051637dc7a0d960e11b81526001600160a01b038416600482015260248101829052604481018390526064016103ba565b61055d84848484035f6107cf565b50505050565b6001600160a01b03831661058c57604051634b637e8f60e11b81525f60048201526024016103ba565b6001600160a01b0382166105b55760405163ec442f0560e01b81525f60048201526024016103ba565b6104e28383836108a1565b5f306001600160a01b037f00000000000000000000000000000000000000000000000000000000000000001614801561061857507f000000000000000000000000000000000000000000000000000000000000000046145b1561064257507f000000000000000000000000000000000000000000000000000000000000000090565b61030c604080517f8b73c3c69bb8fe3d512ecc4cf759cc79239f7b179b0ffacaa9a75d522b39400f60208201527f0000000000000000000000000000000000000000000000000000000000000000918101919091527f000000000000000000000000000000000000000000000000000000000000000060608201524660808201523060a08201525f9060c00160405160208183030381529060405280519060200120905090565b6001600160a01b0382166107125760405163ec442f0560e01b81525f60048201526024016103ba565b61031b5f83836108a1565b606061030c7f000000000000000000000000000000000000000000000000000000000000000060056109c7565b606061030c7f000000000000000000000000000000000000000000000000000000000000000060066109c7565b5f6102da6107836105c0565b8360405161190160f01b8152600281019290925260228201526042902090565b5f805f806107b388888888610a70565b9250925092506107c38282610b38565b50909695505050505050565b6001600160a01b0384166107f85760405163e602df0560e01b81525f60048201526024016103ba565b6001600160a01b03831661082157604051634a1406b160e11b81525f60048201526024016103ba565b6001600160a01b038085165f908152600160209081526040808320938716835292905220829055801561055d57826001600160a01b0316846001600160a01b03167f8c5be1e5ebec7d5bd14f71427d1e84f3dd0314c0f7b2291e5b200ac8c7c3b9258460405161089391815260200190565b60405180910390a350505050565b6001600160a01b0383166108cb578060025f8282546108c09190610eaf565b9091555061093b9050565b6001600160a01b0383165f908152602081905260409020548181101561091d5760405163391434e360e21b81526001600160a01b038516600482015260248101829052604481018390526064016103ba565b6001600160a01b0384165f9081526020819052604090209082900390555b6001600160a01b03821661095757600280548290039055610975565b6001600160a01b0382165f9081526020819052604090208054820190555b816001600160a01b0316836001600160a01b03167fddf252ad1be2c89b69c2b068fc378daa952ba7f163c4a11628f55a4df523b3ef836040516109ba91815260200190565b60405180910390a3505050565b606060ff83146109e1576109da83610bf0565b90506102da565b8180546109ed90610e77565b80601f0160208091040260200160405190810160405280929190818152602001828054610a1990610e77565b8015610a645780601f10610a3b57610100808354040283529160200191610a64565b820191905f5260205f20905b815481529060010190602001808311610a4757829003601f168201915b505050505090506102da565b5f80807f7fffffffffffffffffffffffffffffff5d576e7357a4501ddfe92f46681b20a0841115610aa957505f91506003905082610b2e565b604080515f808252602082018084528a905260ff891692820192909252606081018790526080810186905260019060a0016020604051602081039080840390855afa158015610afa573d5f803e3d5ffd5b5050604051601f1901519150506001600160a01b038116610b2557505f925060019150829050610b2e565b92505f91508190505b9450945094915050565b5f826003811115610b4b57610b4b610ece565b03610b54575050565b6001826003811115610b6857610b68610ece565b03610b865760405163f645eedf60e01b815260040160405180910390fd5b6002826003811115610b9a57610b9a610ece565b03610bbb5760405163fce698f760e01b8152600481018290526024016103ba565b6003826003811115610bcf57610bcf610ece565b0361031b576040516335e2f38360e21b8152600481018290526024016103ba565b60605f610bfc83610c2d565b6040805160208082528183019092529192505f91906020820181803683375050509182525060208101929092525090565b5f60ff8216601f8111156102da57604051632cd44ac360e21b815260040160405180910390fd5b5f81518084525f5b81811015610c7857602081850181015186830182015201610c5c565b505f602082860101526020601f19601f83011685010191505092915050565b602081525f610ca96020830184610c54565b9392505050565b80356001600160a01b0381168114610cc6575f80fd5b919050565b5f8060408385031215610cdc575f80fd5b610ce583610cb0565b946020939093013593505050565b5f805f60608486031215610d05575f80fd5b610d0e84610cb0565b9250610d1c60208501610cb0565b9150604084013590509250925092565b5f60208284031215610d3c575f80fd5b610ca982610cb0565b60ff60f81b881681525f602060e081840152610d6460e084018a610c54565b8381036040850152610d76818a610c54565b606085018990526001600160a01b038816608086015260a0850187905284810360c086015285518082528387019250908301905f5b81811015610dc757835183529284019291840191600101610dab565b50909c9b505050505050505050505050565b5f805f805f805f60e0888a031215610def575f80fd5b610df888610cb0565b9650610e0660208901610cb0565b95506040880135945060608801359350608088013560ff81168114610e29575f80fd5b9699959850939692959460a0840135945060c09093013592915050565b5f8060408385031215610e57575f80fd5b610e6083610cb0565b9150610e6e60208401610cb0565b90509250929050565b600181811c90821680610e8b57607f821691505b602082108103610ea957634e487b7160e01b5f52602260045260245ffd5b50919050565b808201808211156102da57634e487b7160e01b5f52601160045260245ffd5b634e487b7160e01b5f52602160045260245ffdfea2646970667358221220e171a520cdf0fc722fcbca6dff5fe168ed207da10f74f6aba4878fae21f8abd864736f6c63430008150033",
  "immutableReferences": {
    "3364": [
      {
        "length": 32,
        "start": 1568
      }
    ],
    "3366": [
      {
        "length": 32,
        "start": 1526
      }
    ],
    "3368": [
      {
        "length": 32,
        "start": 1484
      }
    ],
    "3370": [
      {
        "length": 32,
        "start": 1649
      }
    ],
    "3372": [
      {
        "length": 32,
        "start": 1689
      }
    ],
    "3375": [
      {
        "length": 32,
        "start": 1828
      }
    ],
    "3378": [
      {
        "length": 32,
        "start": 1873
      }
    ]
  },
  "source": "// SPDX-License-Identifier: MIT\r\npragma solidity ^0.8.0;\r\n\r\nimport \"@openzeppelin/contracts/token/ERC20/extensions/ERC20Permit.sol\";\r\n\r\ncontract TestToken is ERC20Permit {\r\n    constructor() ERC20(\"Test Token\", \"TEST\") ERC20Permit(\"Test Token\") {\r\n        _mint(msg.sender, 1000000 * 10 ** decimals());\r\n    }\r\n\r\n    function mint(address to, uint256 amount) public {\r\n        _mint(to, amount);\r\n    }\r\n}",
  "sourcePath": "C:\\Users\\admin\\Documents\\Dev\\EnoBridge\\Gasless_Forwarder\\contracts\\TestToken.sol",
  "compiler": {
    "name": "solc",
    "version": "0.8.21+commit.d9974bed.Emscripten.clang"
  },
  "schemaVersion": "3.4.16",
  "updatedAt": "2025-11-07T14:55:56.608Z",
  "networkType": "ethereum",
  "devdoc": {
    "errors": {
      "ECDSAInvalidSignature()": [
        {
          "details": "The signature derives the `address(0)`."
        }
      ],
      "ECDSAInvalidSignatureLength(uint256)": [
        {
          "details": "The signature has an invalid length."
        }
      ],
      "ECDSAInvalidSignatureS(bytes32)": [
        {
          "details": "The signature has an S value that is in the upper half order."
        }
      ],
      "ERC20InsufficientAllowance(address,uint256,uint256)": [
        {
          "details": "Indicates a failure with the `spender`’s `allowance`. Used in transfers.",
          "params": {
            "allowance": "Amount of tokens a `spender` is allowed to operate with.",
            "needed": "Minimum amount required to perform a transfer.",
            "spender": "Address that may be allowed to operate on tokens without being their owner."
          }
        }
      ],
      "ERC20InsufficientBalance(address,uint256,uint256)": [
        {
          "details": "Indicates an error related to the current `balance` of a `sender`. Used in transfers.",
          "params": {
            "balance": "Current balance for the interacting account.",
            "needed": "Minimum amount required to perform a transfer.",
            "sender": "Address whose tokens are being transferred."
          }
        }
      ],
      "ERC20InvalidApprover(address)": [
        {
          "details": "Indicates a failure with the `approver` of a token to be approved. Used in approvals.",
          "params": {
            "approver": "Address initiating an approval operation."
          }
        }
      ],
      "ERC20InvalidReceiver(address)": [
        {
          "details": "Indicates a failure with the token `receiver`. Used in transfers.",
          "params": {
            "receiver": "Address to which tokens are being transferred."
          }
        }
      ],
      "ERC20InvalidSender(address)": [
        {
          "details": "Indicates a failure with the token `sender`. Used in transfers.",
          "params": {
            "sender": "Address whose tokens are being transferred."
          }
        }
      ],
      "ERC20InvalidSpender(address)": [
        {
          "details": "Indicates a failure with the `spender` to be approved. Used in approvals.",
          "params": {
            "spender": "Address that may be allowed to operate on tokens without being their owner."
          }
        }
      ],
      "ERC2612ExpiredSignature(uint256)": [
        {
          "details": "Permit deadline has expired."
        }
      ],
      "ERC2612InvalidSigner(address,address)": [
        {
          "details": "Mismatched signature."
        }
      ],
      "InvalidAccountNonce(address,uint256)": [
        {
          "details": "The nonce used for an `account` is not the expected current nonce."
        }
      ]
    },
    "events": {
      "Approval(address,address,uint256)": {
        "details": "Emitted when the allowance of a `spender` for an `owner` is set by a call to {approve}. `value` is the new allowance."
      },
      "EIP712DomainChanged()": {
        "details": "MAY be emitted to signal that the domain could have changed."
      },
      "Transfer(address,address,uint256)": {
        "details": "Emitted when `value` tokens are moved from one account (`from`) to another (`to`). Note that `value` may be zero."
      }
    },
    "kind": "dev",
    "methods": {
      "DOMAIN_SEPARATOR()": {
        "details": "Returns the domain separator used in the encoding of the signature for {permit}, as defined by {EIP712}."
      },
      "allowance(address,address)": {
        "details": "See {IERC20-allowance}."
      },
      "approve(address,uint256)": {
        "details": "See {IERC20-approve}. NOTE: If `value` is the maximum `uint256`, the allowance is not updated on `transferFrom`. This is semantically equivalent to an infinite approval. Requirements: - `spender` cannot be the zero address."
      },
      "balanceOf(address)": {
        "details": "See {IERC20-balanceOf}."
      },
      "decimals()": {
        "details": "Returns the number of decimals used to get its user representation. For example, if `decimals` equals `2`, a balance of `505` tokens should be displayed to a user as `5.05` (`505 / 10 ** 2`). Tokens usually opt for a value of 18, imitating the relationship between Ether and Wei. This is the default value returned by this function, unless it's overridden. NOTE: This information is only used for _display_ purposes: it in no way affects any of the arithmetic of the contract, including {IERC20-balanceOf} and {IERC20-transfer}."
      },
      "eip712Domain()": {
        "details": "See {IERC-5267}."
      },
      "name()": {
        "details": "Returns the name of the token."
      },
      "nonces(address)": {
        "details": "Returns the current nonce for `owner`. This value must be included whenever a signature is generated for {permit}. Every successful call to {permit} increases ``owner``'s nonce by one. This prevents a signature from being used multiple times."
      },
      "permit(address,address,uint256,uint256,uint8,bytes32,bytes32)": {
        "details": "Sets `value` as the allowance of `spender` over ``owner``'s tokens, given ``owner``'s signed approval. IMPORTANT: The same issues {IERC20-approve} has related to transaction ordering also apply here. Emits an {Approval} event. Requirements: - `spender` cannot be the zero address. - `deadline` must be a timestamp in the future. - `v`, `r` and `s` must be a valid `secp256k1` signature from `owner` over the EIP712-formatted function arguments. - the signature must use ``owner``'s current nonce (see {nonces}). For more information on the signature format, see the https://eips.ethereum.org/EIPS/eip-2612#specification[relevant EIP section]. CAUTION: See Security Considerations above."
      },
      "symbol()": {
        "details": "Returns the symbol of the token, usually a shorter version of the name."
      },
      "totalSupply()": {
        "details": "See {IERC20-totalSupply}."
      },
      "transfer(address,uint256)": {
        "details": "See {IERC20-transfer}. Requirements: - `to` cannot be the zero address. - the caller must have a balance of at least `value`."
      },
      "transferFrom(address,address,uint256)": {
        "details": "See {IERC20-transferFrom}. Skips emitting an {Approval} event indicating an allowance update. This is not required by the ERC. See {xref-ERC20-_approve-address-address-uint256-bool-}[_approve]. NOTE: Does not update the allowance if the current allowance is the maximum `uint256`. Requirements: - `from` and `to` cannot be the zero address. - `from` must have a balance of at least `value`. - the caller must have allowance for ``from``'s tokens of at least `value`."
      }
    },
    "version": 1
  },
  "userdoc": {
    "kind": "user",
    "methods": {},
    "version": 1
  }
}